:100B500020506C656173652043686F6F736500207A
:100B60002A6B6579202066696E67657220003D3DBD
:100B70003D436F646564204C6F636B3D3D3D0049B0
:100B80006E7075743A202020202020202020200024
:10084800E4F511F5121210DE1210421211737BFF3B
:100858007A0B79507D017F01120E9D7BFF7A0B790F
:100868005F7D017F02120E9DE51245117009120A83
:100878002C8E118F1280F1E51264014511703C1223
:100888000ACA7BFF7A0B796E7D017F01120E9D7B70
:10089800FF7A0B797F7D017F02120E9DE56CB40C07
:1008A80009E56D7005756DFF8011120716120A7F34
:1008B8001211321205BF12107180E1E5126402456F
:0608C8001170031203434E
:0108CE002207
:060CAD00011E00011F0002
:06111400C2A58F80D2A7E6
:08111A007F027EEFDEFEDFFC28
:0111220022AA
:0A115700C2A6121114C2A702111A59
:100EE100CFCDCFCECCCE1206AE7C007D0A1206AE9F
:040EF100ED2430FFBD
:0A0EF500D2A6121114C2A702111AAE
:10108800AE07BE0104ED148006BE0209ED243F44FC
:0610980080FF1211572237
:1010DE007F381211577F0C1211577F061211577F4E
:0410EE000102115793
:0A116100AC03121088AF04020EF573
:060E9D008B158A1689176F
:100EA300121088E4FDAB15AA16A9178D827583006D
:0C0EB30012066FFF6006120EF50D80E9BC
:010EBF002210
:0C0CE1007F0AEA24FFFDE434FFFC7E00E3
:080CED008E1A8F1B8C1C8D1D5B
:100CF5007F017E00E4FBEBC3951DE51C6480F87461
:0E0D05008098500AAC1AAD1B12069C0B80E8B9
:010D130022BD
:04000E008A178B18AA
:10001200121088AA19EAD39400400D120CE1AC1711
:08002200AD18120EE11A80ED89
:01002A0022B3
:100BCD00121088C3EA64809480400B7F2B120EF5BF
:100BDD008A5D8B5E800E7F2D120EF5C3E49BF55E54
:100BED00E49AF55DAA5CEAD39400400D120CE1ACD9
:090BFD005DAD5E120EE11A80EDFF
:010C060022CB
:040C07008A618B6211
:100C0B00121088AA63EAD3940040297F10120CE3D8
:100C1B00AC61AD62CFCDCFCECCCE1206AEEF540FC2
:100C2B00FEC3940AEE5004243080022437FF120EC8
:040C3B00F51A80D155
:010C3F002292
:040C40008A668B67CE
:100C4400121088AA68EAD394004028EA24FFFDE43D
:100C540034FFFC7F027E00120CEDAC66AD67CFCD95
:100C6400CFCECCCE1206AEEF54012430FF120EF5D7
:030C74001A80D211
:010C7700225A
:0F0F1D00C2A57F0A7E00120F2CD2A77F0A7E008A
:0E0F2C00EF1FAC0670011E4C60030080F32224
:100EFF00EF1FAA0670011E4A6013E4FCFDC3ED94B8
:0D0F0F0058EC940250EA0DBD00010C80F07A
:010F1C0022B2
:090F8D007F057E00120EFF7F3883
:100F9600AD07C2A7C2A6120F1D8D80120F28C2A7C9
:010FA6002228
:1010F200AD07C2A7D2A6120F1D8D80120F28C2A75C
:0111020022CA
:030F5700120F96E0
:100F5A007580FFC2A7C2A6D2A5120F1FAD80120FBD
:080F6A0028C2A7ED20E7EC22EC
:100D47007F0F120F8F120F8D120F8D120F5A7F38D0
:100D5700120F577F08120F577F01120F96120F5A63
:0D0D67007F06120F96120F5A7F0C020F9696
:020D74008F14DA
:100D7600120F5AAF14120F96E4F51AE51AC3951915
:100D86005018120F5AE51A2518F582E433F5831226
:0A0D9600066FFF1210F2051A80E14B
:010DA0002230
:1010B400EF1FAC0670011E4C600A7D027CEFDCFE63
:0410C400DDFC80ECE3
:0110C8002205
:030CB300016DFFD1
:1008CF00E4F51075900FE590640F606E7F647E0005
:1008DF001210B4E590640F6061AF90EF24F56010D3
:1008EF0024FE601114601324077012756C01800DC3
:1008FF00756C028008756C038003756C047590F03D
:10090F00AF90EF2430600C24F0600C2430700E7424
:10091F0004800674088002740C256CF56CC3E51016
:10092F00648094B25014E59064F0600E7F0A7E00EC
:0A093F001210B40510E4F56D80E31A
:01094900228B
:10104200E4F5C9F5C875CC1875CDFC75CA1875CB11
:08105200FCD2CAD2ADD2AF22DC
:03002B00020B9035
:100B9000C0E0C0F0C083C082C0D075D000C000C02B
:100BA00001C002C003C004C005C006C0071208CFC0
:100BB000C2CFD007D006D005D004D003D002D001D8
:0D0BC000D000D0D0D082D083D0F0D0E03271
:04113F00D2A17F05B5
:0811430000AE071FEE70F92257
:0F112300D2A012113FC2A07F05121143C2A12218
:0C114B00C2A012113FD2A07F0502114388
:10105A00C2A1A20092A07F0512114312113FC2A1A0
:07106A00D2A07F0502114333
:081029001211237FA0120DFB40
:1010310012113FA2A09201C2A17F05121143A20188
:01104100228C
:020DFB00AD0742
:100DFD00E4FCC2A17F05121143ED30E704D2A080BF
:100E0D0002C2A07F05121143D2A1ED25E0FD7F05A1
:090E1D001211430CBC08DBC2A158
:010E260022A9
:100F3A00E4FC12113FED25E0FD30A003430501C298
:0C0F4A00A17F051211430CBC08E8AF05A4
:010F56002278
:020E5200AB07EC
:100E5400121029AF03120DFB12103112114B121193
:100E6400237FA1120DFB121031120F3AAD0712119C
:030E74004BAF057C
:010E77002258
:100FA700AB05AA07121029AF02120DFB121031AFC1
:0A0FB70003120DFB12103102114B62
:070CB600026A025801690106
:1010C9005389F0438901758AE0758CB1C28DD28C40
:0510D900D2A9D2AF22F4
:031173000210C99E
:10110300C374FF9FFF74FF9EC28C8F8AF58CD28CB1
:0111130022B9
:03000B00020C786C
:070C7800C0E0C0D075D008F8
:100C7F00E56924FE600E04701ED2A0AF6BAE6A123F
:100C8F0011038013C2A0C37420956BFF744E956A35
:090C9F00FE1211037569000569DC
:050CA800D0D0D0E032C5
:10043B00202A6B6579202066696E67657200202023
:10044B006B6579202A66696E676572003D3D3D4399
:10045B006F646564204C6F636B3D3D3D00496E706E
:10046B0075743A2020202020202020202000455287
:10047B005200506C656173654368616E676500433C
:10048B0068616E6765004F50454E0046696E676543
:10049B0072205465737420202020002020202020FF
:1004AB0020202020202020202020200020207365C9
:1004BB00617263682066696E676572200020204157
:1004CB00646420202044656C657465202000202A1C
:1004DB007365617263682066696E676572200020C0
:1004EB002A41646420202044656C657465202000DB
:1004FB00202041646420202A44656C6574652000CB
:100CBD00084D032F000000000000015700025500F1
:040CCD0001014C03D2
:100A2C00E56CB4041AE56D70167BFF7A04793B7D96
:100A3C00017F02120E9D755500755601756DFFE50F
:100A4C006CB40C1AE56D70167BFF7A0479497D0144
:100A5C007F02120E9D755500755602756DFFE56C83
:100A6C00B4080CE56D7008756DFFAE55AF5622E4F9
:030A7C00FEFF2258
:100ACA007F647E001210B47F05120E52EF7550003B
:100ADA00F54F7F0A7E001210B47F06120E52EF25E0
:100AEA0050F550E4354FF54F7F0A7E001210B47F5F
:100AFA0004120E52EF2554F554E43553F5537F147E
:050B0A007E000210B4A2
:100E7800E4F551F552F5577BFF7A0479577D017FE8
:100E880001120E9D7BFF7A0479687D017F02120EA4
:050E98009D756DFF22B5
:10071600E557C3940440030207BBE56D6003020777
:10072600BBE56C540370030207BBE56C640D7003F4
:100736000207BBE56C640F607C0557AE51AF527C77
:10074600007D0A12069C8E518F52E56C24FBB40A7A
:1007560000504690076775F003A4C58325F0C5834E
:100766007302078502078902078D02079F02079118
:1007760002079502079902079F02079F02079D74C9
:1007860004801874058014740680107407800C7435
:1007960008800874098004800BE56C2552F552E444
:1007A6003551F551855719AB52AA517D077F021273
:0607B600000E756DFF222C
:100A7F00E55764047044E56C6410703EE56D703AA0
:100A8F00E55265507004E551654F600AE552B54E69
:100A9F0012E551B54D0D120EC00554E554701805F1
:100AAF005380147BFF7A0479797D0E7F02120E9D9D
:0B0ABF007FE87E031210B4120E7822B4
:1005BF00E4FEE56C640D600302066EE56D600302F8
:1005CF00066E756DFF7F0A1210B47F04120E52EF84
:1005DF0065547002E553700302066E7BFF7A04794F
:1005EF007D7D017F02120E9D7FB07E041210B4122A
:1005FF000E78120716121132E557B404F5E56CB4F4
:10060F0010F0E56D70EC85514F8552507F64FE12EE
:10061F0010B4E54FFD7F05120FA77F647E00121007
:10062F00B4AD507F06120FA77F647E001210B4E5A1
:10063F0054F445537004F553F554AD547F04120F21
:10064F00A77F647E001210B47BFF7A04798A7D0B3A
:0F065F007F02120E9D7FB07E041210B4120E782F
:01066E002269
:0D113200E56CB40F07E56D7003120E782216
:10107100E56CB40811E56D700DE54C6009D54C03C4
:06108100120EC0120E78F1
:011087002246
:100EC0007BFF7A0479917D0D7F02120E9D756A0970
:100ED000756B2E7FD07E071210B4756A02756B5841
:010EE00022EF
:100343007BFF7A0479967D017F01120E9D7BFF7AF4
:100353000479A67D017F02120E9D12109E7FC87E36
:10036300001210B4120B0F7FE87E031210B47590C5
:10037300F07BFF7A0479B77D017F01120E9D7BFF2D
:100383007A0479C87D017F02120E9DE56CB41008D2
:10039300E56D7004756DFF22E51E70157BFF7A0411
:1003A30079D97D017F01120E9D7BFF7A0479C88084
:1003B30032E51EB401157BFF7A0479B77D017F0115
:1003C300120E9D7BFF7A0479EA8018E51EB4021AA7
:1003D3007BFF7A0479B77D017F01120E9D7BFF7A43
:1003E3000479FB7D017F02120E9DE56CB40820E5C4
:1003F3006D701C756DFFE51E14600C14600E2402F5
:10040300700D12050B800812002E800312094AE5B5
:100413006CB40C1AE56D7016756DFFD3E51E648020
:100423009482500A051EE51EB40303E4F51E7F649F
:080433007E001210B402038EDA
:10109E00438780759850438920758BFF758DFFC2ED
:0610AE00ABD28ED2AF228E
:080003008F993099FDC299228A
:07116B003098FDC298AF9916
:01117200225A
:1001E00020416464202046696E67657220202020CB
:1001F0000020494420697320202020202020202036
:10020000200020506C65617365202066696E67650B
:1002100072200020202020202020202020202020AC
:10022000202020005375636365737366756C2065C9
:100230006E747279002020202049442069732020A8
:1002400020202020200020536561726368202066F2
:10025000696E676572200020536561726368207360
:1002600075636365737320002049442069732020FF
:1002700020202020200020536561726368202066C2
:1002800061696C656420003D3D3D44656C6574208A
:10029000416C6C3D3D3D3D00202020596573206F31
:1002A00072204E6F203F2020003D3D3D3D5761694B
:1002B00074696E673D3D3D3D3D00737563636573D5
:1002C0007366202064656C657465005365617263B4
:1002D00068696E6700446F636B696E6720206661B2
:1002E000696C75726500446F636B696E672020737B
:1002F000756363657373000100071300000000005D
:100300001BEF01FFFFFFFF010003010005010003D8
:100310001D00210100080401000003E700F80100AE
:10032000080401000000130021010004020100087C
:100330000100040202000901000305000901000395
:030340000D00119C
:0F0CD1000221000009230100060601000B001993
:100E2700E4F518F51974012519F58274033518F5D9
:100E370083E493FF1200030519E51970020518C32F
:0A0E47009406E5186480948040DBF7
:010E5100227E
:100D1400E4F514F515120E27E4F514F51574F7250A
:100D240015F58274023514F583E493FF120003056C
:100D340015E51570020514C3940AE51464809480C3
:020D440040DB92
:010D4600228A
:020F72008F15D9
:100F7400E4F516E516C39515500E12116B742C2565
:080F840016F8A607051680EB24
:010F8C002242
:100FC100120E27E4F515E51590030793FF120003B0
:090FD1000515E515C3940640ED79
:010FDA0022F4
:100FDB00120E27E4F515E51590032993FF12000374
:090FEB000515E515C3940740ED5E
:010FF40022DA
:100DA100E4F513E51390030193FF1200030513E526
:100DB10013C3940640EDE4F513E51390033093FF5C
:0C0DC1001200030513E513C3940740ED76
:010DCD002203
:100FF500120E27E4F515E51590031393FF12000370
:091005000515E515C3940B40ED3F
:01100E0022BF
:10100F00120E27E4F513E51390033793FF12000335
:09101F000513E513C3940640ED2E
:0110280022A5
:100DCE00E4F514E51490030193FF1200030514E5F6
:100DDE0014C3940640EDE4F514E51490033D93FF1F
:0C0DEE001200030514E514C3940640ED48
:010DFA0022D6
:0209C400AB077F
:1009C600E4F516F515F514F513EEF528EBF529E41F
:1009D600F51774232517F8E6FFE4FCFDFEE5162F50
:1009E600F516EE3515F515ED3514F514EC3513F54C
:1009F600130517E517B407DAE4FFE515FEE4FDFC79
:100A060078081207038F2AE516FF8F2B120E27E4AC
:100A1600F51774232517F8E6FF1200030517E517E7
:050A2600C3940940ED3E
:010A2B0022A8
:10002E00E4F521F5227BFF7A0179E07D017F011253
:10003E000E9D7BFF7A0179F17D017F02120E9DE507
:10004E006CB40408E56D7004756DFF22E56CB40C9C
:10005E0020E56D701C756DFFE522B4E80CE521B44A
:10006E000307E4F521F52280080522E5227002053A
:10007E0021751903AB22AA217D087F0212000EE51D
:10008E006C640870A0E56D709C756DFF7BFF7A0245
:10009E007902F5187519107F80120D747BFF7A02A4
:1000AE007913E4F5187519107FC0120D74E56CB450
:1000BE000406E56D7002805D120FC17F0C120F7287
:1000CE00E53570E97F64FE1210B4120FDB7F0C125F
:1000DE000F727BFF7A027924E4F5187519107F8070
:1000EE00120D747FE87E031210B47BFF7A02790240
:1000FE00E4F5187519107F80120D747BFF7A027962
:10010E0013E4F5187519107FC0120D74E56CB40464
:10011E000AE56D7006756DFF020033120FC17F0C7C
:10012E00120F72E53570E57FC8FE1210B47BFF7AB0
:10013E00027924E4F5187519107F80120D747BFF77
:10014E007A027935E4F5187519107FC0120D747F97
:10015E00CA120F96AE21AF227C007D641206AEEF5E
:10016E002430FF1210F2AE21AF227C007D64120605
:10017E00AE7E007F0ACFCDCFCECCCE1206AEEF2410
:10018E0030FF1210F2AE21AF227C007D641206AE5B
:10019E007E007F0ACFCDCFCECCCE1206AEED243070
:1001AE00FF1210F2120DA17F0C120F7212100F7FA0
:1001BE000C120F72AF22AE211209C47F0C120F72F5
:1001CE007FE87E031210B40522E52270020521029B
:0201DE000033EC
:10050B00E4F513F514E56CB40408E56D7004756D32
:10051B00FF227BFF7A0279467D017F01120E9D7BC4
:10052B00FF7A0279137D017F02120E9D120FC17F9C
:10053B000C120F72E53570CD7F64FE1210B4120FE2
:10054B00DB7F0C120F72120FF57F10120F72E53555
:10055B007BFF703E7A0279577D017F01120E9D7BE6
:10056B00FF7A0279687D017F02120E9DAF36EFFE96
:10057B00AD377C00E42DF514EC3EF513751903AB88
:10058B0014FA7D087F0212000E120EC07FE87E0364
:10059B00801C7A0279767D017F01120E9D7BFF7A9A
:1005AB000279137D017F02120E9D7FB87E0B121014
:0405BB00B402051071
:10094A00E4F5137BFF7A0279877D017F01120E9D00
:10095A007BFF7A0279987D017F02120E9DE56CB4C5
:10096A000408E56D7004756DFF22E56CB408EEE5C8
:10097A006D70EA756DFF7BFF7A0279A97D017F01AF
:10098A00120E9D7BFF7A0279137D017F02120E9D62
:10099A007F2C7E011210B4120DCE7F0C120F727BC7
:1009AA00FF7A0279A97D017F01120E9D7BFF7A02EF
:0909BA0079BA7D017F02120E9D45
:0109C3002211
:100B0F00E4F5137535017BFF7A0279CB7D017F0206
:100B1F00120E9D7BFF7A0279D5E4F5187519107FB7
:100B2F00C0120D74120D147F0C120F72E535701078
:100B3F007BFF7A0279E6F5187519107FC0120D74D4
:010B4F002283
:030000000207BC38
:0C07BC00787FE4F6D8FD75816D0208031B
:10066F00BB010CE58229F582E5833AF583E0225040
:10067F0006E92582F8E622BBFE06E92582F8E2228A
:0D068F00E58229F582E5833AF583E49322A4
:10069C00EF8DF0A4A8F0CF8CF0A428CE8DF0A42E72
:0206AC00FE222C
:1006AE00BC000BBE0029EF8DF084FFADF022E4CC30
:1006BE00F875F008EF2FFFEE33FEEC33FCEE9DECF9
:1006CE00984005FCEE9DFE0FD5F0E9E4CEFD22ED3F
:1006DE00F8F5F0EE8420D21CFEADF075F008EF2F89
:1006EE00FFED33FD4007985006D5F0F222C398FD7A
:0506FE000FD5F0EA2217
:10070300E8600FECC313FCED13FDEE13FEEF13FFD4
:03071300D8F122F8
:1007C800020848E493A3F8E493A34003F68001F2F7
:1007D80008DFF48029E493A3F85407240CC8C33332
:1007E800C4540F4420C8834004F456800146F6DF01
:1007F800E4800B0102040810204080900CADE47ED8
:10080800019360BCA3FF543F30E509541FFEE493F5
:10081800A360010ECF54C025E060A840B8E493A3BC
:10082800FAE493A3F8E493A3C8C582C8CAC583CAE7
:10083800F0A3C8C582C8CAC583CADFE9DEE780BE9F
:010CE0000013
:00000001FF
